{
  "_format": "hh-sol-artifact-1",
  "contractName": "NFTMarket",
  "sourceName": "contracts/NFTMarket.sol",
  "abi": [
    {
      "inputs": [],
      "stateMutability": "nonpayable",
      "type": "constructor"
    },
    {
      "anonymous": false,
      "inputs": [
        {
          "indexed": true,
          "internalType": "uint256",
          "name": "itemId",
          "type": "uint256"
        },
        {
          "indexed": true,
          "internalType": "address",
          "name": "nftContract",
          "type": "address"
        },
        {
          "indexed": true,
          "internalType": "uint256",
          "name": "tokenId",
          "type": "uint256"
        },
        {
          "indexed": false,
          "internalType": "address",
          "name": "seller",
          "type": "address"
        },
        {
          "indexed": false,
          "internalType": "address",
          "name": "owner",
          "type": "address"
        },
        {
          "indexed": false,
          "internalType": "uint256",
          "name": "price",
          "type": "uint256"
        },
        {
          "indexed": false,
          "internalType": "bool",
          "name": "sold",
          "type": "bool"
        },
        {
          "indexed": false,
          "internalType": "bool",
          "name": "listed",
          "type": "bool"
        }
      ],
      "name": "MarketItemCreated",
      "type": "event"
    },
    {
      "inputs": [
        {
          "internalType": "address",
          "name": "nftContract",
          "type": "address"
        },
        {
          "internalType": "uint256",
          "name": "tokenId",
          "type": "uint256"
        },
        {
          "internalType": "uint256",
          "name": "price",
          "type": "uint256"
        }
      ],
      "name": "createMarketItem",
      "outputs": [],
      "stateMutability": "payable",
      "type": "function"
    },
    {
      "inputs": [
        {
          "internalType": "address",
          "name": "nftContract",
          "type": "address"
        },
        {
          "internalType": "uint256",
          "name": "itemId",
          "type": "uint256"
        }
      ],
      "name": "createMarketSale",
      "outputs": [],
      "stateMutability": "payable",
      "type": "function"
    },
    {
      "inputs": [],
      "name": "fetchItemsCreated",
      "outputs": [
        {
          "components": [
            {
              "internalType": "uint256",
              "name": "itemId",
              "type": "uint256"
            },
            {
              "internalType": "address",
              "name": "nftContract",
              "type": "address"
            },
            {
              "internalType": "uint256",
              "name": "tokenId",
              "type": "uint256"
            },
            {
              "internalType": "address payable",
              "name": "seller",
              "type": "address"
            },
            {
              "internalType": "address payable",
              "name": "owner",
              "type": "address"
            },
            {
              "internalType": "uint256",
              "name": "price",
              "type": "uint256"
            },
            {
              "internalType": "bool",
              "name": "sold",
              "type": "bool"
            },
            {
              "internalType": "bool",
              "name": "listed",
              "type": "bool"
            }
          ],
          "internalType": "struct NFTMarket.MarketItem[]",
          "name": "",
          "type": "tuple[]"
        }
      ],
      "stateMutability": "view",
      "type": "function"
    },
    {
      "inputs": [],
      "name": "fetchMarketItems",
      "outputs": [
        {
          "components": [
            {
              "internalType": "uint256",
              "name": "itemId",
              "type": "uint256"
            },
            {
              "internalType": "address",
              "name": "nftContract",
              "type": "address"
            },
            {
              "internalType": "uint256",
              "name": "tokenId",
              "type": "uint256"
            },
            {
              "internalType": "address payable",
              "name": "seller",
              "type": "address"
            },
            {
              "internalType": "address payable",
              "name": "owner",
              "type": "address"
            },
            {
              "internalType": "uint256",
              "name": "price",
              "type": "uint256"
            },
            {
              "internalType": "bool",
              "name": "sold",
              "type": "bool"
            },
            {
              "internalType": "bool",
              "name": "listed",
              "type": "bool"
            }
          ],
          "internalType": "struct NFTMarket.MarketItem[]",
          "name": "",
          "type": "tuple[]"
        }
      ],
      "stateMutability": "view",
      "type": "function"
    },
    {
      "inputs": [],
      "name": "fetchMyNFTs",
      "outputs": [
        {
          "components": [
            {
              "internalType": "uint256",
              "name": "itemId",
              "type": "uint256"
            },
            {
              "internalType": "address",
              "name": "nftContract",
              "type": "address"
            },
            {
              "internalType": "uint256",
              "name": "tokenId",
              "type": "uint256"
            },
            {
              "internalType": "address payable",
              "name": "seller",
              "type": "address"
            },
            {
              "internalType": "address payable",
              "name": "owner",
              "type": "address"
            },
            {
              "internalType": "uint256",
              "name": "price",
              "type": "uint256"
            },
            {
              "internalType": "bool",
              "name": "sold",
              "type": "bool"
            },
            {
              "internalType": "bool",
              "name": "listed",
              "type": "bool"
            }
          ],
          "internalType": "struct NFTMarket.MarketItem[]",
          "name": "",
          "type": "tuple[]"
        }
      ],
      "stateMutability": "view",
      "type": "function"
    },
    {
      "inputs": [],
      "name": "getListingPrice",
      "outputs": [
        {
          "internalType": "uint256",
          "name": "",
          "type": "uint256"
        }
      ],
      "stateMutability": "view",
      "type": "function"
    },
    {
      "inputs": [
        {
          "internalType": "address",
          "name": "nftContract",
          "type": "address"
        },
        {
          "internalType": "uint256",
          "name": "tokenId",
          "type": "uint256"
        },
        {
          "internalType": "uint256",
          "name": "itemId",
          "type": "uint256"
        },
        {
          "internalType": "uint256",
          "name": "price",
          "type": "uint256"
        }
      ],
      "name": "sellItem",
      "outputs": [],
      "stateMutability": "payable",
      "type": "function"
    }
  ],
  "bytecode": "0x6080604052667c58508723800060045534801561001b57600080fd5b50600160008190555033600360006101000a81548173ffffffffffffffffffffffffffffffffffffffff021916908373ffffffffffffffffffffffffffffffffffffffff160217905550611f39806100746000396000f3fe6080604052600436106100705760003560e01c806358eb2df51161004e57806358eb2df5146100f6578063c23b139e14610112578063f064c32e1461012e578063fd7226db1461015957610070565b80630f08efe01461007557806312e85585146100a0578063202e3740146100cb575b600080fd5b34801561008157600080fd5b5061008a610175565b6040516100979190611b39565b60405180910390f35b3480156100ac57600080fd5b506100b56104bd565b6040516100c29190611bfb565b60405180910390f35b3480156100d757600080fd5b506100e06104c7565b6040516100ed9190611b39565b60405180910390f35b610110600480360381019061010b91906117cc565b610893565b005b61012c60048036038101906101279190611790565b610c24565b005b34801561013a57600080fd5b50610143610f0c565b6040516101509190611b39565b60405180910390f35b610173600480360381019061016e919061181b565b6112d8565b005b60606000610183600161165b565b90506000610191600261165b565b61019b600161165b565b6101a59190611cb6565b90506000808267ffffffffffffffff8111156101ea577f4e487b7100000000000000000000000000000000000000000000000000000000600052604160045260246000fd5b60405190808252806020026020018201604052801561022357816020015b6102106116db565b8152602001906001900390816102085790505b50905060005b848110156104b257600073ffffffffffffffffffffffffffffffffffffffff166005600060018461025a9190611c60565b815260200190815260200160002060040160009054906101000a900473ffffffffffffffffffffffffffffffffffffffff1673ffffffffffffffffffffffffffffffffffffffff16141561049f576000600560006001846102bb9190611c60565b815260200190815260200160002060000154905060006005600083815260200190815260200160002090508060405180610100016040529081600082015481526020016001820160009054906101000a900473ffffffffffffffffffffffffffffffffffffffff1673ffffffffffffffffffffffffffffffffffffffff1673ffffffffffffffffffffffffffffffffffffffff168152602001600282015481526020016003820160009054906101000a900473ffffffffffffffffffffffffffffffffffffffff1673ffffffffffffffffffffffffffffffffffffffff1673ffffffffffffffffffffffffffffffffffffffff1681526020016004820160009054906101000a900473ffffffffffffffffffffffffffffffffffffffff1673ffffffffffffffffffffffffffffffffffffffff1673ffffffffffffffffffffffffffffffffffffffff168152602001600582015481526020016006820160009054906101000a900460ff161515151581526020016006820160019054906101000a900460ff161515151581525050848681518110610482577f4e487b7100000000000000000000000000000000000000000000000000000000600052603260045260246000fd5b602002602001018190525060018561049a9190611c60565b945050505b80806104aa90611d44565b915050610229565b508094505050505090565b6000600454905090565b606060006104d5600161165b565b905060008060005b8381101561057e573373ffffffffffffffffffffffffffffffffffffffff166005600060018461050d9190611c60565b815260200190815260200160002060040160009054906101000a900473ffffffffffffffffffffffffffffffffffffffff1673ffffffffffffffffffffffffffffffffffffffff16141561056b576001836105689190611c60565b92505b808061057690611d44565b9150506104dd565b5060008267ffffffffffffffff8111156105c1577f4e487b7100000000000000000000000000000000000000000000000000000000600052604160045260246000fd5b6040519080825280602002602001820160405280156105fa57816020015b6105e76116db565b8152602001906001900390816105df5790505b50905060005b84811015610888573373ffffffffffffffffffffffffffffffffffffffff16600560006001846106309190611c60565b815260200190815260200160002060040160009054906101000a900473ffffffffffffffffffffffffffffffffffffffff1673ffffffffffffffffffffffffffffffffffffffff161415610875576000600560006001846106919190611c60565b815260200190815260200160002060000154905060006005600083815260200190815260200160002090508060405180610100016040529081600082015481526020016001820160009054906101000a900473ffffffffffffffffffffffffffffffffffffffff1673ffffffffffffffffffffffffffffffffffffffff1673ffffffffffffffffffffffffffffffffffffffff168152602001600282015481526020016003820160009054906101000a900473ffffffffffffffffffffffffffffffffffffffff1673ffffffffffffffffffffffffffffffffffffffff1673ffffffffffffffffffffffffffffffffffffffff1681526020016004820160009054906101000a900473ffffffffffffffffffffffffffffffffffffffff1673ffffffffffffffffffffffffffffffffffffffff1673ffffffffffffffffffffffffffffffffffffffff168152602001600582015481526020016006820160009054906101000a900460ff161515151581526020016006820160019054906101000a900460ff161515151581525050848681518110610858577f4e487b7100000000000000000000000000000000000000000000000000000000600052603260045260246000fd5b60200260200101819052506001856108709190611c60565b945050505b808061088090611d44565b915050610600565b508094505050505090565b600260005414156108d9576040517f08c379a00000000000000000000000000000000000000000000000000000000081526004016108d090611bbb565b60405180910390fd5b600260008190555060008111610924576040517f08c379a000000000000000000000000000000000000000000000000000000000815260040161091b90611bdb565b60405180910390fd5b6004543414610968576040517f08c379a000000000000000000000000000000000000000000000000000000000815260040161095f90611b7b565b60405180910390fd5b6109726001611669565b600061097e600161165b565b90506040518061010001604052808281526020018573ffffffffffffffffffffffffffffffffffffffff1681526020018481526020013373ffffffffffffffffffffffffffffffffffffffff168152602001600073ffffffffffffffffffffffffffffffffffffffff16815260200183815260200160001515815260200160011515815250600560008381526020019081526020016000206000820151816000015560208201518160010160006101000a81548173ffffffffffffffffffffffffffffffffffffffff021916908373ffffffffffffffffffffffffffffffffffffffff1602179055506040820151816002015560608201518160030160006101000a81548173ffffffffffffffffffffffffffffffffffffffff021916908373ffffffffffffffffffffffffffffffffffffffff16021790555060808201518160040160006101000a81548173ffffffffffffffffffffffffffffffffffffffff021916908373ffffffffffffffffffffffffffffffffffffffff16021790555060a0820151816005015560c08201518160060160006101000a81548160ff02191690831515021790555060e08201518160060160016101000a81548160ff0219169083151502179055509050508373ffffffffffffffffffffffffffffffffffffffff166323b872dd3330866040518463ffffffff1660e01b8152600401610b8993929190611aaf565b600060405180830381600087803b158015610ba357600080fd5b505af1158015610bb7573d6000803e3d6000fd5b50505050828473ffffffffffffffffffffffffffffffffffffffff16827fc99151f4453170a67bc7441775fde1a3bc3220c06645df1121e703aab5e7da5d3360008760006001604051610c0e959493929190611ae6565b60405180910390a4506001600081905550505050565b60026000541415610c6a576040517f08c379a0000000000000000000000000000000000000000000000000000000008152600401610c6190611bbb565b60405180910390fd5b6002600081905550600060056000838152602001908152602001600020600501549050600060056000848152602001908152602001600020600201549050813414610cea576040517f08c379a0000000000000000000000000000000000000000000000000000000008152600401610ce190611b9b565b60405180910390fd5b6005600084815260200190815260200160002060030160009054906101000a900473ffffffffffffffffffffffffffffffffffffffff1673ffffffffffffffffffffffffffffffffffffffff166108fc349081150290604051600060405180830381858888f19350505050158015610d66573d6000803e3d6000fd5b508373ffffffffffffffffffffffffffffffffffffffff166323b872dd3033846040518463ffffffff1660e01b8152600401610da493929190611aaf565b600060405180830381600087803b158015610dbe57600080fd5b505af1158015610dd2573d6000803e3d6000fd5b50505050336005600085815260200190815260200160002060040160006101000a81548173ffffffffffffffffffffffffffffffffffffffff021916908373ffffffffffffffffffffffffffffffffffffffff16021790555060016005600085815260200190815260200160002060060160006101000a81548160ff021916908315150217905550610e646002611669565b60006005600085815260200190815260200160002060060160016101000a81548160ff021916908315150217905550600360009054906101000a900473ffffffffffffffffffffffffffffffffffffffff1673ffffffffffffffffffffffffffffffffffffffff166108fc6004549081150290604051600060405180830381858888f19350505050158015610efd573d6000803e3d6000fd5b50505060016000819055505050565b60606000610f1a600161165b565b905060008060005b83811015610fc3573373ffffffffffffffffffffffffffffffffffffffff1660056000600184610f529190611c60565b815260200190815260200160002060030160009054906101000a900473ffffffffffffffffffffffffffffffffffffffff1673ffffffffffffffffffffffffffffffffffffffff161415610fb057600183610fad9190611c60565b92505b8080610fbb90611d44565b915050610f22565b5060008267ffffffffffffffff811115611006577f4e487b7100000000000000000000000000000000000000000000000000000000600052604160045260246000fd5b60405190808252806020026020018201604052801561103f57816020015b61102c6116db565b8152602001906001900390816110245790505b50905060005b848110156112cd573373ffffffffffffffffffffffffffffffffffffffff16600560006001846110759190611c60565b815260200190815260200160002060030160009054906101000a900473ffffffffffffffffffffffffffffffffffffffff1673ffffffffffffffffffffffffffffffffffffffff1614156112ba576000600560006001846110d69190611c60565b815260200190815260200160002060000154905060006005600083815260200190815260200160002090508060405180610100016040529081600082015481526020016001820160009054906101000a900473ffffffffffffffffffffffffffffffffffffffff1673ffffffffffffffffffffffffffffffffffffffff1673ffffffffffffffffffffffffffffffffffffffff168152602001600282015481526020016003820160009054906101000a900473ffffffffffffffffffffffffffffffffffffffff1673ffffffffffffffffffffffffffffffffffffffff1673ffffffffffffffffffffffffffffffffffffffff1681526020016004820160009054906101000a900473ffffffffffffffffffffffffffffffffffffffff1673ffffffffffffffffffffffffffffffffffffffff1673ffffffffffffffffffffffffffffffffffffffff168152602001600582015481526020016006820160009054906101000a900460ff161515151581526020016006820160019054906101000a900460ff16151515158152505084868151811061129d577f4e487b7100000000000000000000000000000000000000000000000000000000600052603260045260246000fd5b60200260200101819052506001856112b59190611c60565b945050505b80806112c590611d44565b915050611045565b508094505050505090565b6002600054141561131e576040517f08c379a000000000000000000000000000000000000000000000000000000000815260040161131590611bbb565b60405180910390fd5b600260008190555060008111611369576040517f08c379a000000000000000000000000000000000000000000000000000000000815260040161136090611bdb565b60405180910390fd5b60045434146113ad576040517f08c379a00000000000000000000000000000000000000000000000000000000081526004016113a490611b7b565b60405180910390fd5b6040518061010001604052808381526020018573ffffffffffffffffffffffffffffffffffffffff1681526020018481526020013373ffffffffffffffffffffffffffffffffffffffff168152602001600073ffffffffffffffffffffffffffffffffffffffff16815260200182815260200160001515815260200160011515815250600560008481526020019081526020016000206000820151816000015560208201518160010160006101000a81548173ffffffffffffffffffffffffffffffffffffffff021916908373ffffffffffffffffffffffffffffffffffffffff1602179055506040820151816002015560608201518160030160006101000a81548173ffffffffffffffffffffffffffffffffffffffff021916908373ffffffffffffffffffffffffffffffffffffffff16021790555060808201518160040160006101000a81548173ffffffffffffffffffffffffffffffffffffffff021916908373ffffffffffffffffffffffffffffffffffffffff16021790555060a0820151816005015560c08201518160060160006101000a81548160ff02191690831515021790555060e08201518160060160016101000a81548160ff0219169083151502179055509050508373ffffffffffffffffffffffffffffffffffffffff166323b872dd3330866040518463ffffffff1660e01b81526004016115b693929190611aaf565b600060405180830381600087803b1580156115d057600080fd5b505af11580156115e4573d6000803e3d6000fd5b505050506115f2600261167f565b828473ffffffffffffffffffffffffffffffffffffffff16837fc99151f4453170a67bc7441775fde1a3bc3220c06645df1121e703aab5e7da5d3360008660006001604051611645959493929190611ae6565b60405180910390a4600160008190555050505050565b600081600001549050919050565b6001816000016000828254019250508190555050565b600081600001549050600081116116cb576040517f08c379a00000000000000000000000000000000000000000000000000000000081526004016116c290611b5b565b60405180910390fd5b6001810382600001819055505050565b60405180610100016040528060008152602001600073ffffffffffffffffffffffffffffffffffffffff16815260200160008152602001600073ffffffffffffffffffffffffffffffffffffffff168152602001600073ffffffffffffffffffffffffffffffffffffffff168152602001600081526020016000151581526020016000151581525090565b60008135905061177581611ed5565b92915050565b60008135905061178a81611eec565b92915050565b600080604083850312156117a357600080fd5b60006117b185828601611766565b92505060206117c28582860161177b565b9150509250929050565b6000806000606084860312156117e157600080fd5b60006117ef86828701611766565b93505060206118008682870161177b565b92505060406118118682870161177b565b9150509250925092565b6000806000806080858703121561183157600080fd5b600061183f87828801611766565b94505060206118508782880161177b565b93505060406118618782880161177b565b92505060606118728782880161177b565b91505092959194509250565b600061188a83836119ef565b6101008301905092915050565b6118a081611cfc565b82525050565b6118af81611cea565b82525050565b6118be81611cea565b82525050565b60006118cf82611c26565b6118d98185611c3e565b93506118e483611c16565b8060005b838110156119155781516118fc888261187e565b975061190783611c31565b9250506001810190506118e8565b5085935050505092915050565b61192b81611d0e565b82525050565b61193a81611d0e565b82525050565b600061194d601b83611c4f565b915061195882611dbc565b602082019050919050565b6000611970602483611c4f565b915061197b82611de5565b604082019050919050565b6000611993603d83611c4f565b915061199e82611e34565b604082019050919050565b60006119b6601f83611c4f565b91506119c182611e83565b602082019050919050565b60006119d9601c83611c4f565b91506119e482611eac565b602082019050919050565b61010082016000820151611a066000850182611a91565b506020820151611a1960208501826118a6565b506040820151611a2c6040850182611a91565b506060820151611a3f6060850182611897565b506080820151611a526080850182611897565b5060a0820151611a6560a0850182611a91565b5060c0820151611a7860c0850182611922565b5060e0820151611a8b60e0850182611922565b50505050565b611a9a81611d3a565b82525050565b611aa981611d3a565b82525050565b6000606082019050611ac460008301866118b5565b611ad160208301856118b5565b611ade6040830184611aa0565b949350505050565b600060a082019050611afb60008301886118b5565b611b0860208301876118b5565b611b156040830186611aa0565b611b226060830185611931565b611b2f6080830184611931565b9695505050505050565b60006020820190508181036000830152611b5381846118c4565b905092915050565b60006020820190508181036000830152611b7481611940565b9050919050565b60006020820190508181036000830152611b9481611963565b9050919050565b60006020820190508181036000830152611bb481611986565b9050919050565b60006020820190508181036000830152611bd4816119a9565b9050919050565b60006020820190508181036000830152611bf4816119cc565b9050919050565b6000602082019050611c106000830184611aa0565b92915050565b6000819050602082019050919050565b600081519050919050565b6000602082019050919050565b600082825260208201905092915050565b600082825260208201905092915050565b6000611c6b82611d3a565b9150611c7683611d3a565b9250827fffffffffffffffffffffffffffffffffffffffffffffffffffffffffffffffff03821115611cab57611caa611d8d565b5b828201905092915050565b6000611cc182611d3a565b9150611ccc83611d3a565b925082821015611cdf57611cde611d8d565b5b828203905092915050565b6000611cf582611d1a565b9050919050565b6000611d0782611d1a565b9050919050565b60008115159050919050565b600073ffffffffffffffffffffffffffffffffffffffff82169050919050565b6000819050919050565b6000611d4f82611d3a565b91507fffffffffffffffffffffffffffffffffffffffffffffffffffffffffffffffff821415611d8257611d81611d8d565b5b600182019050919050565b7f4e487b7100000000000000000000000000000000000000000000000000000000600052601160045260246000fd5b7f436f756e7465723a2064656372656d656e74206f766572666c6f770000000000600082015250565b7f5072696365206d75737420626520657175616c20746f206c697374696e67207060008201527f7269636500000000000000000000000000000000000000000000000000000000602082015250565b7f506c65617365207375626d6974207468652061736b20707269636520696e206f60008201527f7264657220746f20636f6d706c65746520746865207075726368617365000000602082015250565b7f5265656e7472616e637947756172643a207265656e7472616e742063616c6c00600082015250565b7f5072696365206d757374206265206174206c6561737420312077656900000000600082015250565b611ede81611cea565b8114611ee957600080fd5b50565b611ef581611d3a565b8114611f0057600080fd5b5056fea264697066735822122095eca042c2eba1ae3eeda3400d8dfd587b33d8f880b64125eb74fc9fe405b4b164736f6c63430008040033",
  "linkReferences": {},
  "deployedLinkReferences": {}
}